{
  "contractName": "SimpleDapp",
  "abi": [
    {
      "inputs": [],
      "payable": true,
      "stateMutability": "payable",
      "type": "constructor"
    },
    {
      "constant": false,
      "inputs": [
        {
          "name": "name",
          "type": "string"
        },
        {
          "name": "city",
          "type": "bytes32"
        },
        {
          "name": "country",
          "type": "bytes32"
        }
      ],
      "name": "register",
      "outputs": [
        {
          "name": "success",
          "type": "bool"
        }
      ],
      "payable": false,
      "stateMutability": "nonpayable",
      "type": "function"
    },
    {
      "constant": true,
      "inputs": [],
      "name": "getUsers",
      "outputs": [
        {
          "name": "",
          "type": "address[]"
        }
      ],
      "payable": false,
      "stateMutability": "view",
      "type": "function"
    },
    {
      "constant": true,
      "inputs": [
        {
          "name": "userAddress",
          "type": "address"
        }
      ],
      "name": "getUser",
      "outputs": [
        {
          "name": "",
          "type": "string"
        },
        {
          "name": "",
          "type": "bytes32"
        },
        {
          "name": "",
          "type": "bytes32"
        }
      ],
      "payable": false,
      "stateMutability": "view",
      "type": "function"
    }
  ],
  "bytecode": "0x6080604052336000806101000a81548173ffffffffffffffffffffffffffffffffffffffff021916908373ffffffffffffffffffffffffffffffffffffffff1602179055506106ef806100536000396000f300608060405260043610610056576000357c0100000000000000000000000000000000000000000000000000000000900463ffffffff168062ce8e3e1461005b57806309f60e75146100c75780636f77926b14610164575b600080fd5b34801561006757600080fd5b5061007061023e565b6040518080602001828103825283818151815260200191508051906020019060200280838360005b838110156100b3578082015181840152602081019050610098565b505050509050019250505060405180910390f35b3480156100d357600080fd5b5061014a600480360381019080803590602001908201803590602001908080601f0160208091040260200160405190810160405280939291908181526020018383808284378201915050505050509192919290803560001916906020019092919080356000191690602001909291905050506102cc565b604051808215151515815260200191505060405180910390f35b34801561017057600080fd5b506101a5600480360381019080803573ffffffffffffffffffffffffffffffffffffffff1690602001909291905050506104a8565b604051808060200184600019166000191681526020018360001916600019168152602001828103825285818151815260200191508051906020019080838360005b838110156102015780820151818401526020810190506101e6565b50505050905090810190601f16801561022e5780820380516001836020036101000a031916815260200191505b5094505050505060405180910390f35b606060028054806020026020016040519081016040528092919081815260200182805480156102c257602002820191906000526020600020905b8160009054906101000a900473ffffffffffffffffffffffffffffffffffffffff1673ffffffffffffffffffffffffffffffffffffffff1681526020019060010190808311610278575b5050505050905090565b6000803390506000600160008373ffffffffffffffffffffffffffffffffffffffff1673ffffffffffffffffffffffffffffffffffffffff16815260200190815260200160002060000180546001816001161561010002031660029004905014801561033a57506000855114155b1561049b5784600160008373ffffffffffffffffffffffffffffffffffffffff1673ffffffffffffffffffffffffffffffffffffffff168152602001908152602001600020600001908051906020019061039592919061061e565b5083600160008373ffffffffffffffffffffffffffffffffffffffff1673ffffffffffffffffffffffffffffffffffffffff168152602001908152602001600020600101816000191690555082600160008373ffffffffffffffffffffffffffffffffffffffff1673ffffffffffffffffffffffffffffffffffffffff168152602001908152602001600020600201816000191690555060028190806001815401808255809150509060018203906000526020600020016000909192909190916101000a81548173ffffffffffffffffffffffffffffffffffffffff021916908373ffffffffffffffffffffffffffffffffffffffff16021790555050600191506104a0565b600091505b509392505050565b6060600080600160008573ffffffffffffffffffffffffffffffffffffffff1673ffffffffffffffffffffffffffffffffffffffff168152602001908152602001600020600001600160008673ffffffffffffffffffffffffffffffffffffffff1673ffffffffffffffffffffffffffffffffffffffff16815260200190815260200160002060010154600160008773ffffffffffffffffffffffffffffffffffffffff1673ffffffffffffffffffffffffffffffffffffffff16815260200190815260200160002060020154828054600181600116156101000203166002900480601f01602080910402602001604051908101604052809291908181526020018280546001816001161561010002031660029004801561060a5780601f106105df5761010080835404028352916020019161060a565b820191906000526020600020905b8154815290600101906020018083116105ed57829003601f168201915b505050505092509250925092509193909250565b828054600181600116156101000203166002900490600052602060002090601f016020900481019282601f1061065f57805160ff191683800117855561068d565b8280016001018555821561068d579182015b8281111561068c578251825591602001919060010190610671565b5b50905061069a919061069e565b5090565b6106c091905b808211156106bc5760008160009055506001016106a4565b5090565b905600a165627a7a72305820d3cee85c16607ab602e76ce856ee1b9aa6d478c11552880d5ed1f1834ba3b3330029",
  "source": "pragma solidity ^0.4.4;\r\ncontract SimpleDapp{\r\n\taddress Admin;\r\n\r\n\t/*mapping(bytes32=>notarizedImage) notarizedImage;\r\n\tbytes32[] imagesByNotaryHash;\r\n\t*/\r\n\tmapping(address=>User) Users;\r\n\taddress[] usersByAddress;\r\n\r\n\t/*struct notarizedImage{\r\n\t\tstring imageURL;\r\n\t\tuint timeStamp;\r\n\t}*/\r\n\r\n\tstruct User{\r\n\t\tstring name;\r\n\t\tbytes32 city;\r\n\t\tbytes32 country;\r\n\t\t//bytes32[] myImages;\r\n\t}\r\n\r\n\tfunction SimpleDapp() payable {  //CONSTRUCTOR gets called ONCE only when contract is first deployed\r\n\t    Admin = msg.sender;  // just set the admin, so they can remove bad users or images if needed, but nobody else can\r\n\t }\r\n\r\n\tmodifier onlyAdmin() {\r\n    if (msg.sender != Admin)\r\n      throw;\r\n    _; // Do not forget the \"_;\"! It will be replaced by the actual function body when the modifier is used.\r\n  }\r\n\r\n\tfunction register(string name, bytes32 city, bytes32 country) returns(bool success){\r\n\t\taddress newAddress = msg.sender;\r\n\r\n\t\tif(bytes(Users[newAddress].name).length==0 && bytes(name).length!=0){\r\n\t\t\tUsers[newAddress].name = name;\r\n\t\t\tUsers[newAddress].city = city;\r\n\t\t\tUsers[newAddress].country = country;\r\n\t\t\tusersByAddress.push(newAddress);\r\n\t\t\treturn true;\r\n\t\t} else{\r\n\t\t\treturn false;\r\n\t\t}\r\n\t}\r\n\r\n\tfunction getUsers() constant returns (address[]){\r\n\t\treturn usersByAddress;\r\n\t}\r\n\r\n\tfunction getUser (address userAddress) constant returns (string, bytes32, bytes32){\r\n\t\treturn (Users[userAddress].name, Users[userAddress].city, Users[userAddress].country);\r\n\t}\r\n\r\n}\r\n",
  "sourcePath": "C:\\Users\\Yichun\\Documents\\Projects\\Programming\\simple-dapp\\simpleDapp\\contracts\\SimpleDapp.sol",
  "compiler": {
    "name": "solc",
    "version": "0.4.24+commit.e67f0147.Emscripten.clang"
  },
  "schemaVersion": "2.0.1",
  "updatedAt": "2018-09-12T20:31:30.975Z"
}