{
  "contractName": "simpleDapp",
  "abi": [
    {
      "inputs": [],
      "payable": true,
      "stateMutability": "payable",
      "type": "constructor"
    },
    {
      "constant": false,
      "inputs": [
        {
          "name": "name",
          "type": "string"
        },
        {
          "name": "city",
          "type": "string"
        },
        {
          "name": "country",
          "type": "string"
        }
      ],
      "name": "register",
      "outputs": [],
      "payable": false,
      "stateMutability": "nonpayable",
      "type": "function"
    },
    {
      "constant": true,
      "inputs": [],
      "name": "getUsers",
      "outputs": [
        {
          "name": "",
          "type": "address[]"
        }
      ],
      "payable": false,
      "stateMutability": "view",
      "type": "function"
    },
    {
      "constant": true,
      "inputs": [
        {
          "name": "userAddress",
          "type": "address"
        }
      ],
      "name": "getUser",
      "outputs": [
        {
          "name": "",
          "type": "string"
        },
        {
          "name": "",
          "type": "string"
        },
        {
          "name": "",
          "type": "string"
        }
      ],
      "payable": false,
      "stateMutability": "view",
      "type": "function"
    }
  ],
  "bytecode": "0x6080604052336000806101000a81548173ffffffffffffffffffffffffffffffffffffffff021916908373ffffffffffffffffffffffffffffffffffffffff1602179055506109e0806100536000396000f3fe608060405260043610610056576000357c0100000000000000000000000000000000000000000000000000000000900463ffffffff168062ce8e3e1461005b5780634cd08d03146100c75780636f77926b146102bd575b600080fd5b34801561006757600080fd5b5061007061045f565b6040518080602001828103825283818151815260200191508051906020019060200280838360005b838110156100b3578082015181840152602081019050610098565b505050509050019250505060405180910390f35b3480156100d357600080fd5b506102bb600480360360608110156100ea57600080fd5b810190808035906020019064010000000081111561010757600080fd5b82018360208201111561011957600080fd5b8035906020019184600183028401116401000000008311171561013b57600080fd5b91908080601f016020809104026020016040519081016040528093929190818152602001838380828437600081840152601f19601f8201169050808301925050505050505091929192908035906020019064010000000081111561019e57600080fd5b8201836020820111156101b057600080fd5b803590602001918460018302840111640100000000831117156101d257600080fd5b91908080601f016020809104026020016040519081016040528093929190818152602001838380828437600081840152601f19601f8201169050808301925050505050505091929192908035906020019064010000000081111561023557600080fd5b82018360208201111561024757600080fd5b8035906020019184600183028401116401000000008311171561026957600080fd5b91908080601f016020809104026020016040519081016040528093929190818152602001838380828437600081840152601f19601f8201169050808301925050505050505091929192905050506104ed565b005b3480156102c957600080fd5b5061030c600480360360208110156102e057600080fd5b81019080803573ffffffffffffffffffffffffffffffffffffffff169060200190929190505050610663565b60405180806020018060200180602001848103845287818151815260200191508051906020019080838360005b83811015610354578082015181840152602081019050610339565b50505050905090810190601f1680156103815780820380516001836020036101000a031916815260200191505b50848103835286818151815260200191508051906020019080838360005b838110156103ba57808201518184015260208101905061039f565b50505050905090810190601f1680156103e75780820380516001836020036101000a031916815260200191505b50848103825285818151815260200191508051906020019080838360005b83811015610420578082015181840152602081019050610405565b50505050905090810190601f16801561044d5780820380516001836020036101000a031916815260200191505b50965050505050505060405180910390f35b606060028054806020026020016040519081016040528092919081815260200182805480156104e357602002820191906000526020600020905b8160009054906101000a900473ffffffffffffffffffffffffffffffffffffffff1673ffffffffffffffffffffffffffffffffffffffff1681526020019060010190808311610499575b5050505050905090565b600033905083600160008373ffffffffffffffffffffffffffffffffffffffff1673ffffffffffffffffffffffffffffffffffffffff168152602001908152602001600020600001908051906020019061054892919061090f565b5082600160008373ffffffffffffffffffffffffffffffffffffffff1673ffffffffffffffffffffffffffffffffffffffff168152602001908152602001600020600101908051906020019061059f92919061090f565b5081600160008373ffffffffffffffffffffffffffffffffffffffff1673ffffffffffffffffffffffffffffffffffffffff16815260200190815260200160002060020190805190602001906105f692919061090f565b5060028190806001815401808255809150509060018203906000526020600020016000909192909190916101000a81548173ffffffffffffffffffffffffffffffffffffffff021916908373ffffffffffffffffffffffffffffffffffffffff1602179055505050505050565b6060806060600160008573ffffffffffffffffffffffffffffffffffffffff1673ffffffffffffffffffffffffffffffffffffffff168152602001908152602001600020600001600160008673ffffffffffffffffffffffffffffffffffffffff1673ffffffffffffffffffffffffffffffffffffffff168152602001908152602001600020600101600160008773ffffffffffffffffffffffffffffffffffffffff1673ffffffffffffffffffffffffffffffffffffffff168152602001908152602001600020600201828054600181600116156101000203166002900480601f0160208091040260200160405190810160405280929190818152602001828054600181600116156101000203166002900480156107c35780601f10610798576101008083540402835291602001916107c3565b820191906000526020600020905b8154815290600101906020018083116107a657829003601f168201915b50505050509250818054600181600116156101000203166002900480601f01602080910402602001604051908101604052809291908181526020018280546001816001161561010002031660029004801561085f5780601f106108345761010080835404028352916020019161085f565b820191906000526020600020905b81548152906001019060200180831161084257829003601f168201915b50505050509150808054600181600116156101000203166002900480601f0160208091040260200160405190810160405280929190818152602001828054600181600116156101000203166002900480156108fb5780601f106108d0576101008083540402835291602001916108fb565b820191906000526020600020905b8154815290600101906020018083116108de57829003601f168201915b505050505090509250925092509193909250565b828054600181600116156101000203166002900490600052602060002090601f016020900481019282601f1061095057805160ff191683800117855561097e565b8280016001018555821561097e579182015b8281111561097d578251825591602001919060010190610962565b5b50905061098b919061098f565b5090565b6109b191905b808211156109ad576000816000905550600101610995565b5090565b9056fea165627a7a723058204f74a5c4de7a0f3598ddb9b39a5c6f99b3f7fa7a83c0550b66d21d28ae9d11a00029",
  "source": "pragma solidity ^0.5.0;\r\ncontract simpleDapp{\r\n    address Admin;\r\n\r\n    /*mapping(bytes32=>notarizedImage) notarizedImage;\r\n    bytes32[] imagesByNotaryHash;\r\n    */\r\n    mapping(address=>User) users;\r\n    address[] usersByAddress;\r\n\r\n    /*struct notarizedImage{\r\n        string imageURL;\r\n        uint timeStamp;\r\n    }*/\r\n\r\n    struct User{\r\n        string name;\r\n        string city;\r\n        string country;\r\n        //bytes32[] myImages;\r\n    }\r\n\r\n    constructor() payable public {  //CONSTRUCTOR gets called ONCE only when contract is first deployed\r\n        Admin = msg.sender;  // just set the admin, so they can remove bad users or images if needed, but nobody else can\r\n    }\r\n\r\n    modifier onlyAdmin() {\r\n        require(Admin==msg.sender, \"Sender is not admin\");\r\n        _; // Do not forget the \"_;\"! It will be replaced by the actual function body when the modifier is used.\r\n    }\r\n\r\n    function register(string memory name, string memory city, string memory country) public{\r\n        address newAddress = msg.sender;\r\n\r\n        users[newAddress].name = name;\r\n        users[newAddress].city = city;\r\n        users[newAddress].country = country;\r\n        usersByAddress.push(newAddress);\r\n    }\r\n\r\n    function getUsers() public view returns (address[] memory){\r\n        return usersByAddress;\r\n    }\r\n\r\n    function getUser (address userAddress) public view returns (string memory, string memory , string memory ){\r\n        return (users[userAddress].name, users[userAddress].city, users[userAddress].country);\r\n    }\r\n\r\n}\r\n",
  "sourcePath": "C:/Users/Yichun/Documents/Projects/Programming/simple-dapp/contracts/SimpleDapp.sol",
  "compiler": {
    "name": "solc",
    "version": "0.5.0+commit.1d4f565a.Emscripten.clang"
  },
  "schemaVersion": "3.0.1",
  "updatedAt": "2019-01-15T19:52:40.448Z",
  "devdoc": {
    "methods": {}
  },
  "userdoc": {
    "methods": {}
  }
}